{
  "_format": "hh-sol-artifact-1",
  "contractName": "KindToken",
  "sourceName": "contracts/KindToken.sol",
  "abi": [
    {
      "inputs": [],
      "stateMutability": "nonpayable",
      "type": "constructor"
    },
    {
      "inputs": [
        {
          "internalType": "address",
          "name": "spender",
          "type": "address"
        },
        {
          "internalType": "uint256",
          "name": "allowance",
          "type": "uint256"
        },
        {
          "internalType": "uint256",
          "name": "needed",
          "type": "uint256"
        }
      ],
      "name": "ERC20InsufficientAllowance",
      "type": "error"
    },
    {
      "inputs": [
        {
          "internalType": "address",
          "name": "sender",
          "type": "address"
        },
        {
          "internalType": "uint256",
          "name": "balance",
          "type": "uint256"
        },
        {
          "internalType": "uint256",
          "name": "needed",
          "type": "uint256"
        }
      ],
      "name": "ERC20InsufficientBalance",
      "type": "error"
    },
    {
      "inputs": [
        {
          "internalType": "address",
          "name": "approver",
          "type": "address"
        }
      ],
      "name": "ERC20InvalidApprover",
      "type": "error"
    },
    {
      "inputs": [
        {
          "internalType": "address",
          "name": "receiver",
          "type": "address"
        }
      ],
      "name": "ERC20InvalidReceiver",
      "type": "error"
    },
    {
      "inputs": [
        {
          "internalType": "address",
          "name": "sender",
          "type": "address"
        }
      ],
      "name": "ERC20InvalidSender",
      "type": "error"
    },
    {
      "inputs": [
        {
          "internalType": "address",
          "name": "spender",
          "type": "address"
        }
      ],
      "name": "ERC20InvalidSpender",
      "type": "error"
    },
    {
      "inputs": [
        {
          "internalType": "address",
          "name": "owner",
          "type": "address"
        }
      ],
      "name": "OwnableInvalidOwner",
      "type": "error"
    },
    {
      "inputs": [
        {
          "internalType": "address",
          "name": "account",
          "type": "address"
        }
      ],
      "name": "OwnableUnauthorizedAccount",
      "type": "error"
    },
    {
      "anonymous": false,
      "inputs": [
        {
          "indexed": true,
          "internalType": "address",
          "name": "owner",
          "type": "address"
        },
        {
          "indexed": true,
          "internalType": "address",
          "name": "spender",
          "type": "address"
        },
        {
          "indexed": false,
          "internalType": "uint256",
          "name": "value",
          "type": "uint256"
        }
      ],
      "name": "Approval",
      "type": "event"
    },
    {
      "anonymous": false,
      "inputs": [
        {
          "indexed": true,
          "internalType": "uint256",
          "name": "missionId",
          "type": "uint256"
        },
        {
          "indexed": true,
          "internalType": "address",
          "name": "participant",
          "type": "address"
        }
      ],
      "name": "MissionCompleted",
      "type": "event"
    },
    {
      "anonymous": false,
      "inputs": [
        {
          "indexed": true,
          "internalType": "uint256",
          "name": "missionId",
          "type": "uint256"
        },
        {
          "indexed": false,
          "internalType": "string",
          "name": "name",
          "type": "string"
        },
        {
          "indexed": false,
          "internalType": "uint256",
          "name": "kindReward",
          "type": "uint256"
        },
        {
          "indexed": false,
          "internalType": "uint256",
          "name": "xrpReward",
          "type": "uint256"
        }
      ],
      "name": "MissionCreated",
      "type": "event"
    },
    {
      "anonymous": false,
      "inputs": [
        {
          "indexed": true,
          "internalType": "address",
          "name": "previousOwner",
          "type": "address"
        },
        {
          "indexed": true,
          "internalType": "address",
          "name": "newOwner",
          "type": "address"
        }
      ],
      "name": "OwnershipTransferred",
      "type": "event"
    },
    {
      "anonymous": false,
      "inputs": [
        {
          "indexed": true,
          "internalType": "address",
          "name": "participant",
          "type": "address"
        },
        {
          "indexed": false,
          "internalType": "uint256",
          "name": "amount",
          "type": "uint256"
        }
      ],
      "name": "TokensBurned",
      "type": "event"
    },
    {
      "anonymous": false,
      "inputs": [
        {
          "indexed": true,
          "internalType": "address",
          "name": "participant",
          "type": "address"
        },
        {
          "indexed": false,
          "internalType": "uint256",
          "name": "amount",
          "type": "uint256"
        }
      ],
      "name": "TokensMinted",
      "type": "event"
    },
    {
      "anonymous": false,
      "inputs": [
        {
          "indexed": true,
          "internalType": "address",
          "name": "from",
          "type": "address"
        },
        {
          "indexed": true,
          "internalType": "address",
          "name": "to",
          "type": "address"
        },
        {
          "indexed": false,
          "internalType": "uint256",
          "name": "value",
          "type": "uint256"
        }
      ],
      "name": "Transfer",
      "type": "event"
    },
    {
      "anonymous": false,
      "inputs": [
        {
          "indexed": true,
          "internalType": "address",
          "name": "verifier",
          "type": "address"
        }
      ],
      "name": "VerifierAdded",
      "type": "event"
    },
    {
      "anonymous": false,
      "inputs": [
        {
          "indexed": true,
          "internalType": "address",
          "name": "verifier",
          "type": "address"
        }
      ],
      "name": "VerifierRemoved",
      "type": "event"
    },
    {
      "inputs": [
        {
          "internalType": "address",
          "name": "verifier",
          "type": "address"
        }
      ],
      "name": "addVerifier",
      "outputs": [],
      "stateMutability": "nonpayable",
      "type": "function"
    },
    {
      "inputs": [
        {
          "internalType": "address",
          "name": "owner",
          "type": "address"
        },
        {
          "internalType": "address",
          "name": "spender",
          "type": "address"
        }
      ],
      "name": "allowance",
      "outputs": [
        {
          "internalType": "uint256",
          "name": "",
          "type": "uint256"
        }
      ],
      "stateMutability": "view",
      "type": "function"
    },
    {
      "inputs": [
        {
          "internalType": "address",
          "name": "spender",
          "type": "address"
        },
        {
          "internalType": "uint256",
          "name": "value",
          "type": "uint256"
        }
      ],
      "name": "approve",
      "outputs": [
        {
          "internalType": "bool",
          "name": "",
          "type": "bool"
        }
      ],
      "stateMutability": "nonpayable",
      "type": "function"
    },
    {
      "inputs": [
        {
          "internalType": "address",
          "name": "account",
          "type": "address"
        }
      ],
      "name": "balanceOf",
      "outputs": [
        {
          "internalType": "uint256",
          "name": "",
          "type": "uint256"
        }
      ],
      "stateMutability": "view",
      "type": "function"
    },
    {
      "inputs": [
        {
          "internalType": "uint256",
          "name": "amount",
          "type": "uint256"
        }
      ],
      "name": "burn",
      "outputs": [],
      "stateMutability": "nonpayable",
      "type": "function"
    },
    {
      "inputs": [
        {
          "internalType": "address",
          "name": "account",
          "type": "address"
        },
        {
          "internalType": "uint256",
          "name": "amount",
          "type": "uint256"
        }
      ],
      "name": "burnFrom",
      "outputs": [],
      "stateMutability": "nonpayable",
      "type": "function"
    },
    {
      "inputs": [
        {
          "internalType": "uint256",
          "name": "_missionId",
          "type": "uint256"
        }
      ],
      "name": "closeMission",
      "outputs": [],
      "stateMutability": "nonpayable",
      "type": "function"
    },
    {
      "inputs": [
        {
          "internalType": "uint256",
          "name": "_missionId",
          "type": "uint256"
        },
        {
          "internalType": "address",
          "name": "_participant",
          "type": "address"
        }
      ],
      "name": "completeMissionForParticipant",
      "outputs": [],
      "stateMutability": "nonpayable",
      "type": "function"
    },
    {
      "inputs": [
        {
          "internalType": "string",
          "name": "_name",
          "type": "string"
        },
        {
          "internalType": "string",
          "name": "_description",
          "type": "string"
        },
        {
          "internalType": "uint256",
          "name": "_kindReward",
          "type": "uint256"
        },
        {
          "internalType": "uint256",
          "name": "_xrpReward",
          "type": "uint256"
        }
      ],
      "name": "createMission",
      "outputs": [],
      "stateMutability": "nonpayable",
      "type": "function"
    },
    {
      "inputs": [],
      "name": "decimals",
      "outputs": [
        {
          "internalType": "uint8",
          "name": "",
          "type": "uint8"
        }
      ],
      "stateMutability": "view",
      "type": "function"
    },
    {
      "inputs": [
        {
          "internalType": "uint256",
          "name": "_missionId",
          "type": "uint256"
        },
        {
          "internalType": "address",
          "name": "_participant",
          "type": "address"
        }
      ],
      "name": "isParticipantRewarded",
      "outputs": [
        {
          "internalType": "bool",
          "name": "",
          "type": "bool"
        }
      ],
      "stateMutability": "view",
      "type": "function"
    },
    {
      "inputs": [
        {
          "internalType": "address",
          "name": "to",
          "type": "address"
        },
        {
          "internalType": "uint256",
          "name": "amount",
          "type": "uint256"
        }
      ],
      "name": "mint",
      "outputs": [],
      "stateMutability": "nonpayable",
      "type": "function"
    },
    {
      "inputs": [],
      "name": "missionCount",
      "outputs": [
        {
          "internalType": "uint256",
          "name": "",
          "type": "uint256"
        }
      ],
      "stateMutability": "view",
      "type": "function"
    },
    {
      "inputs": [],
      "name": "name",
      "outputs": [
        {
          "internalType": "string",
          "name": "",
          "type": "string"
        }
      ],
      "stateMutability": "view",
      "type": "function"
    },
    {
      "inputs": [],
      "name": "owner",
      "outputs": [
        {
          "internalType": "address",
          "name": "",
          "type": "address"
        }
      ],
      "stateMutability": "view",
      "type": "function"
    },
    {
      "inputs": [
        {
          "internalType": "address",
          "name": "verifier",
          "type": "address"
        }
      ],
      "name": "removeVerifier",
      "outputs": [],
      "stateMutability": "nonpayable",
      "type": "function"
    },
    {
      "inputs": [],
      "name": "renounceOwnership",
      "outputs": [],
      "stateMutability": "nonpayable",
      "type": "function"
    },
    {
      "inputs": [],
      "name": "symbol",
      "outputs": [
        {
          "internalType": "string",
          "name": "",
          "type": "string"
        }
      ],
      "stateMutability": "view",
      "type": "function"
    },
    {
      "inputs": [],
      "name": "totalSupply",
      "outputs": [
        {
          "internalType": "uint256",
          "name": "",
          "type": "uint256"
        }
      ],
      "stateMutability": "view",
      "type": "function"
    },
    {
      "inputs": [
        {
          "internalType": "address",
          "name": "to",
          "type": "address"
        },
        {
          "internalType": "uint256",
          "name": "value",
          "type": "uint256"
        }
      ],
      "name": "transfer",
      "outputs": [
        {
          "internalType": "bool",
          "name": "",
          "type": "bool"
        }
      ],
      "stateMutability": "nonpayable",
      "type": "function"
    },
    {
      "inputs": [
        {
          "internalType": "address",
          "name": "from",
          "type": "address"
        },
        {
          "internalType": "address",
          "name": "to",
          "type": "address"
        },
        {
          "internalType": "uint256",
          "name": "value",
          "type": "uint256"
        }
      ],
      "name": "transferFrom",
      "outputs": [
        {
          "internalType": "bool",
          "name": "",
          "type": "bool"
        }
      ],
      "stateMutability": "nonpayable",
      "type": "function"
    },
    {
      "inputs": [
        {
          "internalType": "address",
          "name": "newOwner",
          "type": "address"
        }
      ],
      "name": "transferOwnership",
      "outputs": [],
      "stateMutability": "nonpayable",
      "type": "function"
    }
  ],
  "bytecode": "0x608060405234801561001057600080fd5b50336040518060400160405280600981526020017f4b696e64546f6b656e00000000000000000000000000000000000000000000008152506040518060400160405280600481526020017f4b494e4400000000000000000000000000000000000000000000000000000000815250816003908161008d919061043d565b50806004908161009d919061043d565b505050600073ffffffffffffffffffffffffffffffffffffffff168173ffffffffffffffffffffffffffffffffffffffff16036101125760006040517f1e4fbdf70000000000000000000000000000000000000000000000000000000081526004016101099190610550565b60405180910390fd5b6101218161012760201b60201c565b5061056b565b6000600560009054906101000a900473ffffffffffffffffffffffffffffffffffffffff16905081600560006101000a81548173ffffffffffffffffffffffffffffffffffffffff021916908373ffffffffffffffffffffffffffffffffffffffff1602179055508173ffffffffffffffffffffffffffffffffffffffff168173ffffffffffffffffffffffffffffffffffffffff167f8be0079c531659141344cd1fd0a4f28419497f9722a3daafe3b4186f6b6457e060405160405180910390a35050565b600081519050919050565b7f4e487b7100000000000000000000000000000000000000000000000000000000600052604160045260246000fd5b7f4e487b7100000000000000000000000000000000000000000000000000000000600052602260045260246000fd5b6000600282049050600182168061026e57607f821691505b60208210810361028157610280610227565b5b50919050565b60008190508160005260206000209050919050565b60006020601f8301049050919050565b600082821b905092915050565b6000600883026102e97fffffffffffffffffffffffffffffffffffffffffffffffffffffffffffffffff826102ac565b6102f386836102ac565b95508019841693508086168417925050509392505050565b6000819050919050565b6000819050919050565b600061033a6103356103308461030b565b610315565b61030b565b9050919050565b6000819050919050565b6103548361031f565b61036861036082610341565b8484546102b9565b825550505050565b600090565b61037d610370565b61038881848461034b565b505050565b5b818110156103ac576103a1600082610375565b60018101905061038e565b5050565b601f8211156103f1576103c281610287565b6103cb8461029c565b810160208510156103da578190505b6103ee6103e68561029c565b83018261038d565b50505b505050565b600082821c905092915050565b6000610414600019846008026103f6565b1980831691505092915050565b600061042d8383610403565b9150826002028217905092915050565b610446826101ed565b67ffffffffffffffff81111561045f5761045e6101f8565b5b6104698254610256565b6104748282856103b0565b600060209050601f8311600181146104a75760008415610495578287015190505b61049f8582610421565b865550610507565b601f1984166104b586610287565b60005b828110156104dd578489015182556001820191506020850194506020810190506104b8565b868310156104fa57848901516104f6601f891682610403565b8355505b6001600288020188555050505b505050505050565b600073ffffffffffffffffffffffffffffffffffffffff82169050919050565b600061053a8261050f565b9050919050565b61054a8161052f565b82525050565b60006020820190506105656000830184610541565b92915050565b61210c8061057a6000396000f3fe608060405234801561001057600080fd5b50600436106101425760003560e01c80638da5cb5b116100b8578063d052730b1161007c578063d052730b14610363578063dd62ed3e1461037f578063e812e5a4146103af578063eabbe103146103cb578063f2fde38b146103e7578063ff9c08fa1461040357610142565b80638da5cb5b146102bf5780639000b3d6146102dd57806395d89b41146102f9578063a9059cbb14610317578063ca2dfd0a1461034757610142565b80633b3f313e1161010a5780633b3f313e1461020157806340c10f191461023157806342966c681461024d57806370a0823114610269578063715018a61461029957806379cc6790146102a357610142565b806306fdde0314610147578063095ea7b31461016557806318160ddd1461019557806323b872dd146101b3578063313ce567146101e3575b600080fd5b61014f610421565b60405161015c91906116c8565b60405180910390f35b61017f600480360381019061017a9190611792565b6104b3565b60405161018c91906117ed565b60405180910390f35b61019d6104d6565b6040516101aa9190611817565b60405180910390f35b6101cd60048036038101906101c89190611832565b6104e0565b6040516101da91906117ed565b60405180910390f35b6101eb61050f565b6040516101f891906118a1565b60405180910390f35b61021b600480360381019061021691906118bc565b610518565b60405161022891906117ed565b60405180910390f35b61024b60048036038101906102469190611792565b610580565b005b610267600480360381019061026291906118fc565b6105e4565b005b610283600480360381019061027e9190611929565b61068a565b6040516102909190611817565b60405180910390f35b6102a16106d2565b005b6102bd60048036038101906102b89190611792565b6106e6565b005b6102c7610795565b6040516102d49190611965565b60405180910390f35b6102f760048036038101906102f29190611929565b6107bf565b005b610301610865565b60405161030e91906116c8565b60405180910390f35b610331600480360381019061032c9190611792565b6108f7565b60405161033e91906117ed565b60405180910390f35b610361600480360381019061035c9190611929565b61091a565b005b61037d60048036038101906103789190611ab5565b6109c0565b005b61039960048036038101906103949190611b54565b610ac6565b6040516103a69190611817565b60405180910390f35b6103c960048036038101906103c491906118bc565b610b4d565b005b6103e560048036038101906103e091906118fc565b610d1f565b005b61040160048036038101906103fc9190611929565b610dbc565b005b61040b610e42565b6040516104189190611817565b60405180910390f35b60606003805461043090611bc3565b80601f016020809104026020016040519081016040528092919081815260200182805461045c90611bc3565b80156104a95780601f1061047e576101008083540402835291602001916104a9565b820191906000526020600020905b81548152906001019060200180831161048c57829003601f168201915b5050505050905090565b6000806104be610e48565b90506104cb818585610e50565b600191505092915050565b6000600254905090565b6000806104eb610e48565b90506104f8858285610e62565b610503858585610ef7565b60019150509392505050565b60006012905090565b60006008600084815260200190815260200160002060008373ffffffffffffffffffffffffffffffffffffffff1673ffffffffffffffffffffffffffffffffffffffff16815260200190815260200160002060009054906101000a900460ff16905092915050565b610588610feb565b6105928282611072565b8173ffffffffffffffffffffffffffffffffffffffff167f3f2c9d57c068687834f0de942a9babb9e5acab57d516d3480a3c16ee165a4273826040516105d89190611817565b60405180910390a25050565b806105ee3361068a565b101561062f576040517f08c379a000000000000000000000000000000000000000000000000000000000815260040161062690611c40565b60405180910390fd5b61063933826110f4565b3373ffffffffffffffffffffffffffffffffffffffff167ffd38818f5291bf0bb3a2a48aadc06ba8757865d1dabd804585338aab3009dcb68260405161067f9190611817565b60405180910390a250565b60008060008373ffffffffffffffffffffffffffffffffffffffff1673ffffffffffffffffffffffffffffffffffffffff168152602001908152602001600020549050919050565b6106da610feb565b6106e46000611176565b565b6106ee610feb565b806106f88361068a565b1015610739576040517f08c379a000000000000000000000000000000000000000000000000000000000815260040161073090611c40565b60405180910390fd5b61074382826110f4565b8173ffffffffffffffffffffffffffffffffffffffff167ffd38818f5291bf0bb3a2a48aadc06ba8757865d1dabd804585338aab3009dcb6826040516107899190611817565b60405180910390a25050565b6000600560009054906101000a900473ffffffffffffffffffffffffffffffffffffffff16905090565b6107c7610feb565b6001600660008373ffffffffffffffffffffffffffffffffffffffff1673ffffffffffffffffffffffffffffffffffffffff16815260200190815260200160002060006101000a81548160ff0219169083151502179055508073ffffffffffffffffffffffffffffffffffffffff167f6d05492139c5ea989514a5d2150c028041e5c087e2a39967f67dc7d2655adb8160405160405180910390a250565b60606004805461087490611bc3565b80601f01602080910402602001604051908101604052809291908181526020018280546108a090611bc3565b80156108ed5780601f106108c2576101008083540402835291602001916108ed565b820191906000526020600020905b8154815290600101906020018083116108d057829003601f168201915b5050505050905090565b600080610902610e48565b905061090f818585610ef7565b600191505092915050565b610922610feb565b6000600660008373ffffffffffffffffffffffffffffffffffffffff1673ffffffffffffffffffffffffffffffffffffffff16815260200190815260200160002060006101000a81548160ff0219169083151502179055508073ffffffffffffffffffffffffffffffffffffffff167f44a3cd4eb5cc5748f6169df057b1cb2ae4c383e87cd94663c430e095d4cba42460405160405180910390a250565b6109c8610feb565b6040518060a00160405280858152602001848152602001838152602001828152602001600115158152506007600060095481526020019081526020016000206000820151816000019081610a1c9190611e0c565b506020820151816001019081610a329190611e0c565b50604082015181600201556060820151816003015560808201518160040160006101000a81548160ff0219169083151502179055509050506009547f3f76d6aeb9bc21e46175af3d5b6e7fa4feae6ea730845ed3efc4a0f16e6746ba858484604051610aa093929190611ede565b60405180910390a260096000815480929190610abb90611f4b565b919050555050505050565b6000600160008473ffffffffffffffffffffffffffffffffffffffff1673ffffffffffffffffffffffffffffffffffffffff16815260200190815260200160002060008373ffffffffffffffffffffffffffffffffffffffff1673ffffffffffffffffffffffffffffffffffffffff16815260200190815260200160002054905092915050565b6007600083815260200190815260200160002060040160009054906101000a900460ff16610bb0576040517f08c379a0000000000000000000000000000000000000000000000000000000008152600401610ba790611fdf565b60405180910390fd5b6008600083815260200190815260200160002060008273ffffffffffffffffffffffffffffffffffffffff1673ffffffffffffffffffffffffffffffffffffffff16815260200190815260200160002060009054906101000a900460ff1615610c4e576040517f08c379a0000000000000000000000000000000000000000000000000000000008152600401610c459061204b565b60405180910390fd5b60016008600084815260200190815260200160002060008373ffffffffffffffffffffffffffffffffffffffff1673ffffffffffffffffffffffffffffffffffffffff16815260200190815260200160002060006101000a81548160ff021916908315150217905550610cd7816007600085815260200190815260200160002060020154611072565b8073ffffffffffffffffffffffffffffffffffffffff16827f4ae077c0aba17c6d720f79703968df0e45a9fceef6d8c8c4de7d88bc112a47e360405160405180910390a35050565b610d27610feb565b6007600082815260200190815260200160002060040160009054906101000a900460ff16610d8a576040517f08c379a0000000000000000000000000000000000000000000000000000000008152600401610d8190611fdf565b60405180910390fd5b60006007600083815260200190815260200160002060040160006101000a81548160ff02191690831515021790555050565b610dc4610feb565b600073ffffffffffffffffffffffffffffffffffffffff168173ffffffffffffffffffffffffffffffffffffffff1603610e365760006040517f1e4fbdf7000000000000000000000000000000000000000000000000000000008152600401610e2d9190611965565b60405180910390fd5b610e3f81611176565b50565b60095481565b600033905090565b610e5d838383600161123c565b505050565b6000610e6e8484610ac6565b90507fffffffffffffffffffffffffffffffffffffffffffffffffffffffffffffffff811015610ef15781811015610ee1578281836040517ffb8f41b2000000000000000000000000000000000000000000000000000000008152600401610ed89392919061206b565b60405180910390fd5b610ef08484848403600061123c565b5b50505050565b600073ffffffffffffffffffffffffffffffffffffffff168373ffffffffffffffffffffffffffffffffffffffff1603610f695760006040517f96c6fd1e000000000000000000000000000000000000000000000000000000008152600401610f609190611965565b60405180910390fd5b600073ffffffffffffffffffffffffffffffffffffffff168273ffffffffffffffffffffffffffffffffffffffff1603610fdb5760006040517fec442f05000000000000000000000000000000000000000000000000000000008152600401610fd29190611965565b60405180910390fd5b610fe6838383611413565b505050565b610ff3610e48565b73ffffffffffffffffffffffffffffffffffffffff16611011610795565b73ffffffffffffffffffffffffffffffffffffffff161461107057611034610e48565b6040517f118cdaa70000000000000000000000000000000000000000000000000000000081526004016110679190611965565b60405180910390fd5b565b600073ffffffffffffffffffffffffffffffffffffffff168273ffffffffffffffffffffffffffffffffffffffff16036110e45760006040517fec442f050000000000000000000000000000000000000000000000000000000081526004016110db9190611965565b60405180910390fd5b6110f060008383611413565b5050565b600073ffffffffffffffffffffffffffffffffffffffff168273ffffffffffffffffffffffffffffffffffffffff16036111665760006040517f96c6fd1e00000000000000000000000000000000000000000000000000000000815260040161115d9190611965565b60405180910390fd5b61117282600083611413565b5050565b6000600560009054906101000a900473ffffffffffffffffffffffffffffffffffffffff16905081600560006101000a81548173ffffffffffffffffffffffffffffffffffffffff021916908373ffffffffffffffffffffffffffffffffffffffff1602179055508173ffffffffffffffffffffffffffffffffffffffff168173ffffffffffffffffffffffffffffffffffffffff167f8be0079c531659141344cd1fd0a4f28419497f9722a3daafe3b4186f6b6457e060405160405180910390a35050565b600073ffffffffffffffffffffffffffffffffffffffff168473ffffffffffffffffffffffffffffffffffffffff16036112ae5760006040517fe602df050000000000000000000000000000000000000000000000000000000081526004016112a59190611965565b60405180910390fd5b600073ffffffffffffffffffffffffffffffffffffffff168373ffffffffffffffffffffffffffffffffffffffff16036113205760006040517f94280d620000000000000000000000000000000000000000000000000000000081526004016113179190611965565b60405180910390fd5b81600160008673ffffffffffffffffffffffffffffffffffffffff1673ffffffffffffffffffffffffffffffffffffffff16815260200190815260200160002060008573ffffffffffffffffffffffffffffffffffffffff1673ffffffffffffffffffffffffffffffffffffffff16815260200190815260200160002081905550801561140d578273ffffffffffffffffffffffffffffffffffffffff168473ffffffffffffffffffffffffffffffffffffffff167f8c5be1e5ebec7d5bd14f71427d1e84f3dd0314c0f7b2291e5b200ac8c7c3b925846040516114049190611817565b60405180910390a35b50505050565b600073ffffffffffffffffffffffffffffffffffffffff168373ffffffffffffffffffffffffffffffffffffffff160361146557806002600082825461145991906120a2565b92505081905550611538565b60008060008573ffffffffffffffffffffffffffffffffffffffff1673ffffffffffffffffffffffffffffffffffffffff168152602001908152602001600020549050818110156114f1578381836040517fe450d38c0000000000000000000000000000000000000000000000000000000081526004016114e89392919061206b565b60405180910390fd5b8181036000808673ffffffffffffffffffffffffffffffffffffffff1673ffffffffffffffffffffffffffffffffffffffff16815260200190815260200160002081905550505b600073ffffffffffffffffffffffffffffffffffffffff168273ffffffffffffffffffffffffffffffffffffffff160361158157806002600082825403925050819055506115ce565b806000808473ffffffffffffffffffffffffffffffffffffffff1673ffffffffffffffffffffffffffffffffffffffff168152602001908152602001600020600082825401925050819055505b8173ffffffffffffffffffffffffffffffffffffffff168373ffffffffffffffffffffffffffffffffffffffff167fddf252ad1be2c89b69c2b068fc378daa952ba7f163c4a11628f55a4df523b3ef8360405161162b9190611817565b60405180910390a3505050565b600081519050919050565b600082825260208201905092915050565b60005b83811015611672578082015181840152602081019050611657565b60008484015250505050565b6000601f19601f8301169050919050565b600061169a82611638565b6116a48185611643565b93506116b4818560208601611654565b6116bd8161167e565b840191505092915050565b600060208201905081810360008301526116e2818461168f565b905092915050565b6000604051905090565b600080fd5b600080fd5b600073ffffffffffffffffffffffffffffffffffffffff82169050919050565b6000611729826116fe565b9050919050565b6117398161171e565b811461174457600080fd5b50565b60008135905061175681611730565b92915050565b6000819050919050565b61176f8161175c565b811461177a57600080fd5b50565b60008135905061178c81611766565b92915050565b600080604083850312156117a9576117a86116f4565b5b60006117b785828601611747565b92505060206117c88582860161177d565b9150509250929050565b60008115159050919050565b6117e7816117d2565b82525050565b600060208201905061180260008301846117de565b92915050565b6118118161175c565b82525050565b600060208201905061182c6000830184611808565b92915050565b60008060006060848603121561184b5761184a6116f4565b5b600061185986828701611747565b935050602061186a86828701611747565b925050604061187b8682870161177d565b9150509250925092565b600060ff82169050919050565b61189b81611885565b82525050565b60006020820190506118b66000830184611892565b92915050565b600080604083850312156118d3576118d26116f4565b5b60006118e18582860161177d565b92505060206118f285828601611747565b9150509250929050565b600060208284031215611912576119116116f4565b5b60006119208482850161177d565b91505092915050565b60006020828403121561193f5761193e6116f4565b5b600061194d84828501611747565b91505092915050565b61195f8161171e565b82525050565b600060208201905061197a6000830184611956565b92915050565b600080fd5b600080fd5b7f4e487b7100000000000000000000000000000000000000000000000000000000600052604160045260246000fd5b6119c28261167e565b810181811067ffffffffffffffff821117156119e1576119e061198a565b5b80604052505050565b60006119f46116ea565b9050611a0082826119b9565b919050565b600067ffffffffffffffff821115611a2057611a1f61198a565b5b611a298261167e565b9050602081019050919050565b82818337600083830152505050565b6000611a58611a5384611a05565b6119ea565b905082815260208101848484011115611a7457611a73611985565b5b611a7f848285611a36565b509392505050565b600082601f830112611a9c57611a9b611980565b5b8135611aac848260208601611a45565b91505092915050565b60008060008060808587031215611acf57611ace6116f4565b5b600085013567ffffffffffffffff811115611aed57611aec6116f9565b5b611af987828801611a87565b945050602085013567ffffffffffffffff811115611b1a57611b196116f9565b5b611b2687828801611a87565b9350506040611b378782880161177d565b9250506060611b488782880161177d565b91505092959194509250565b60008060408385031215611b6b57611b6a6116f4565b5b6000611b7985828601611747565b9250506020611b8a85828601611747565b9150509250929050565b7f4e487b7100000000000000000000000000000000000000000000000000000000600052602260045260246000fd5b60006002820490506001821680611bdb57607f821691505b602082108103611bee57611bed611b94565b5b50919050565b7f496e73756666696369656e742062616c616e6365000000000000000000000000600082015250565b6000611c2a601483611643565b9150611c3582611bf4565b602082019050919050565b60006020820190508181036000830152611c5981611c1d565b9050919050565b60008190508160005260206000209050919050565b60006020601f8301049050919050565b600082821b905092915050565b600060088302611cc27fffffffffffffffffffffffffffffffffffffffffffffffffffffffffffffffff82611c85565b611ccc8683611c85565b95508019841693508086168417925050509392505050565b6000819050919050565b6000611d09611d04611cff8461175c565b611ce4565b61175c565b9050919050565b6000819050919050565b611d2383611cee565b611d37611d2f82611d10565b848454611c92565b825550505050565b600090565b611d4c611d3f565b611d57818484611d1a565b505050565b5b81811015611d7b57611d70600082611d44565b600181019050611d5d565b5050565b601f821115611dc057611d9181611c60565b611d9a84611c75565b81016020851015611da9578190505b611dbd611db585611c75565b830182611d5c565b50505b505050565b600082821c905092915050565b6000611de360001984600802611dc5565b1980831691505092915050565b6000611dfc8383611dd2565b9150826002028217905092915050565b611e1582611638565b67ffffffffffffffff811115611e2e57611e2d61198a565b5b611e388254611bc3565b611e43828285611d7f565b600060209050601f831160018114611e765760008415611e64578287015190505b611e6e8582611df0565b865550611ed6565b601f198416611e8486611c60565b60005b82811015611eac57848901518255600182019150602085019450602081019050611e87565b86831015611ec95784890151611ec5601f891682611dd2565b8355505b6001600288020188555050505b505050505050565b60006060820190508181036000830152611ef8818661168f565b9050611f076020830185611808565b611f146040830184611808565b949350505050565b7f4e487b7100000000000000000000000000000000000000000000000000000000600052601160045260246000fd5b6000611f568261175c565b91507fffffffffffffffffffffffffffffffffffffffffffffffffffffffffffffffff8203611f8857611f87611f1c565b5b600182019050919050565b7f4d697373696f6e206973206e6f74206163746976650000000000000000000000600082015250565b6000611fc9601583611643565b9150611fd482611f93565b602082019050919050565b60006020820190508181036000830152611ff881611fbc565b9050919050565b7f4d697373696f6e20616c726561647920636c61696d6564000000000000000000600082015250565b6000612035601783611643565b915061204082611fff565b602082019050919050565b6000602082019050818103600083015261206481612028565b9050919050565b60006060820190506120806000830186611956565b61208d6020830185611808565b61209a6040830184611808565b949350505050565b60006120ad8261175c565b91506120b88361175c565b92508282019050808211156120d0576120cf611f1c565b5b9291505056fea264697066735822122098d2049a7f01d8aca2bfc378cad368fb3bdd2b2474b58290818c3bce21b29eab64736f6c634300081c0033",
  "linkReferences": {},
  "deployedLinkReferences": {}
}